:020000040000FA
:0400000075EF02F0A6
:100300000043757272656E742054656D706572611C
:100310007475726500776F726C640000000E32ECC9
:1003200002F0850EE82EFED700F0030E69EC02F015
:10033000210EE82EFED700F0030E69EC02F0490E04
:10034000E82EFED700F0030E69EC02F0020E69EC15
:1003500002F0020E69EC02F0080E69EC02F0000EE9
:1003600069EC02F00C0E69EC02F0000E69EC02F090
:10037000060E69EC02F01200000E956E8EEC01F094
:100380007CEC02F05CEC02F0010E036E010EE5EC79
:1003900001F0010E056E030E066E0DEC02F0480E24
:1003A00083EC02F0010E036E020EE5EC01F0150E77
:1003B000056E030E066E0DEC02F0340E0B6EF20E9F
:1003C000E82EFED70B2EFCD7DFD7046E0404D8A48A
:1003D00010D003507F0F076E07380F0B056E0750C4
:1003E0000F0B066E055069EC02F0065069EC02F046
:1003F0001200020E0418D8A412000350BF0F076E9B
:1004000007380F0B056E07500F0B066E055069EC91
:1004100002F0065069EC02F01200000E0A6E000EA7
:10042000096E10D009500524076E0A500620086E88
:1004300007C0F6FF08C0F7FF0800F55048EC02F0CF
:10044000094A0A2A09500524076E0A500620086E38
:1004500007C0F6FF08C0F7FF0800F5500009D8B440
:100460001200E0D7016E01A002D0838801D08398EA
:1004700001A202D0838A01D0839A01A402D0838C86
:1004800001D0839C01A602D0838E1200839E1200AD
:10049000046E04500F0B026E0450F00B036E838445
:1004A00003380F0B32EC02F083868396025032EC55
:1004B00002F0838683961200949C948E1F0EAF6E7A
:1004C000AC98AB8EAB889D989D9AAC9CAB9CAC8A4B
:1004D0001200026E8394025032EC02F083861A0EF0
:1004E000E82EFED700D083961200000EF86E030EA1
:1004F000F76E0001BCEF01F0000E69EC02F0010E96
:1005000069EC02F01200016E9EA8FED701C0ADFF9B
:020510001200D7
:020000040020DA
:08000000FFFFFFFFFFFFFFFF00
:020000040030CA
:0E000000FF090F3F3C9D81FF0FC00FE00F4036
:00000001FF
